{
  "_format": "hh-sol-artifact-1",
  "contractName": "decentraMedContract",
  "sourceName": "contracts/decentraMedContract.sol",
  "abi": [
    {
      "inputs": [],
      "stateMutability": "nonpayable",
      "type": "constructor"
    },
    {
      "anonymous": false,
      "inputs": [
        {
          "indexed": true,
          "internalType": "address",
          "name": "owner",
          "type": "address"
        },
        {
          "indexed": true,
          "internalType": "address",
          "name": "approved",
          "type": "address"
        },
        {
          "indexed": true,
          "internalType": "uint256",
          "name": "tokenId",
          "type": "uint256"
        }
      ],
      "name": "Approval",
      "type": "event"
    },
    {
      "anonymous": false,
      "inputs": [
        {
          "indexed": true,
          "internalType": "address",
          "name": "owner",
          "type": "address"
        },
        {
          "indexed": true,
          "internalType": "address",
          "name": "operator",
          "type": "address"
        },
        {
          "indexed": false,
          "internalType": "bool",
          "name": "approved",
          "type": "bool"
        }
      ],
      "name": "ApprovalForAll",
      "type": "event"
    },
    {
      "anonymous": false,
      "inputs": [
        {
          "indexed": true,
          "internalType": "address",
          "name": "from",
          "type": "address"
        },
        {
          "indexed": true,
          "internalType": "address",
          "name": "to",
          "type": "address"
        },
        {
          "indexed": true,
          "internalType": "uint256",
          "name": "tokenId",
          "type": "uint256"
        }
      ],
      "name": "Transfer",
      "type": "event"
    },
    {
      "inputs": [
        {
          "internalType": "address",
          "name": "player",
          "type": "address"
        },
        {
          "internalType": "string",
          "name": "tokenURI",
          "type": "string"
        }
      ],
      "name": "addRecord",
      "outputs": [
        {
          "internalType": "uint256",
          "name": "",
          "type": "uint256"
        }
      ],
      "stateMutability": "nonpayable",
      "type": "function"
    },
    {
      "inputs": [
        {
          "internalType": "address",
          "name": "to",
          "type": "address"
        },
        {
          "internalType": "uint256",
          "name": "tokenId",
          "type": "uint256"
        }
      ],
      "name": "approve",
      "outputs": [],
      "stateMutability": "nonpayable",
      "type": "function"
    },
    {
      "inputs": [
        {
          "internalType": "address",
          "name": "owner",
          "type": "address"
        }
      ],
      "name": "balanceOf",
      "outputs": [
        {
          "internalType": "uint256",
          "name": "",
          "type": "uint256"
        }
      ],
      "stateMutability": "view",
      "type": "function"
    },
    {
      "inputs": [
        {
          "internalType": "uint256",
          "name": "tokenId",
          "type": "uint256"
        }
      ],
      "name": "getApproved",
      "outputs": [
        {
          "internalType": "address",
          "name": "",
          "type": "address"
        }
      ],
      "stateMutability": "view",
      "type": "function"
    },
    {
      "inputs": [
        {
          "internalType": "address",
          "name": "owner",
          "type": "address"
        },
        {
          "internalType": "address",
          "name": "operator",
          "type": "address"
        }
      ],
      "name": "isApprovedForAll",
      "outputs": [
        {
          "internalType": "bool",
          "name": "",
          "type": "bool"
        }
      ],
      "stateMutability": "view",
      "type": "function"
    },
    {
      "inputs": [],
      "name": "name",
      "outputs": [
        {
          "internalType": "string",
          "name": "",
          "type": "string"
        }
      ],
      "stateMutability": "view",
      "type": "function"
    },
    {
      "inputs": [
        {
          "internalType": "uint256",
          "name": "tokenId",
          "type": "uint256"
        }
      ],
      "name": "ownerOf",
      "outputs": [
        {
          "internalType": "address",
          "name": "",
          "type": "address"
        }
      ],
      "stateMutability": "view",
      "type": "function"
    },
    {
      "inputs": [
        {
          "internalType": "address",
          "name": "from",
          "type": "address"
        },
        {
          "internalType": "address",
          "name": "to",
          "type": "address"
        },
        {
          "internalType": "uint256",
          "name": "tokenId",
          "type": "uint256"
        }
      ],
      "name": "safeTransferFrom",
      "outputs": [],
      "stateMutability": "nonpayable",
      "type": "function"
    },
    {
      "inputs": [
        {
          "internalType": "address",
          "name": "from",
          "type": "address"
        },
        {
          "internalType": "address",
          "name": "to",
          "type": "address"
        },
        {
          "internalType": "uint256",
          "name": "tokenId",
          "type": "uint256"
        },
        {
          "internalType": "bytes",
          "name": "data",
          "type": "bytes"
        }
      ],
      "name": "safeTransferFrom",
      "outputs": [],
      "stateMutability": "nonpayable",
      "type": "function"
    },
    {
      "inputs": [
        {
          "internalType": "address",
          "name": "operator",
          "type": "address"
        },
        {
          "internalType": "bool",
          "name": "approved",
          "type": "bool"
        }
      ],
      "name": "setApprovalForAll",
      "outputs": [],
      "stateMutability": "nonpayable",
      "type": "function"
    },
    {
      "inputs": [
        {
          "internalType": "bytes4",
          "name": "interfaceId",
          "type": "bytes4"
        }
      ],
      "name": "supportsInterface",
      "outputs": [
        {
          "internalType": "bool",
          "name": "",
          "type": "bool"
        }
      ],
      "stateMutability": "view",
      "type": "function"
    },
    {
      "inputs": [],
      "name": "symbol",
      "outputs": [
        {
          "internalType": "string",
          "name": "",
          "type": "string"
        }
      ],
      "stateMutability": "view",
      "type": "function"
    },
    {
      "inputs": [
        {
          "internalType": "uint256",
          "name": "tokenId",
          "type": "uint256"
        }
      ],
      "name": "tokenURI",
      "outputs": [
        {
          "internalType": "string",
          "name": "",
          "type": "string"
        }
      ],
      "stateMutability": "view",
      "type": "function"
    },
    {
      "inputs": [
        {
          "internalType": "address",
          "name": "from",
          "type": "address"
        },
        {
          "internalType": "address",
          "name": "to",
          "type": "address"
        },
        {
          "internalType": "uint256",
          "name": "tokenId",
          "type": "uint256"
        }
      ],
      "name": "transferFrom",
      "outputs": [],
      "stateMutability": "nonpayable",
      "type": "function"
    }
  ],
  "bytecode": "0x60806040523480156200001157600080fd5b506040518060400160405280601181526020017f646563656e7472614d65645265636f72640000000000000000000000000000008152506040518060400160405280600381526020017f444d520000000000000000000000000000000000000000000000000000000000815250816000908051906020019062000096929190620000b8565b508060019080519060200190620000af929190620000b8565b505050620001cd565b828054620000c69062000197565b90600052602060002090601f016020900481019282620000ea576000855562000136565b82601f106200010557805160ff191683800117855562000136565b8280016001018555821562000136579182015b828111156200013557825182559160200191906001019062000118565b5b50905062000145919062000149565b5090565b5b80821115620001645760008160009055506001016200014a565b5090565b7f4e487b7100000000000000000000000000000000000000000000000000000000600052602260045260246000fd5b60006002820490506001821680620001b057607f821691505b60208210811415620001c757620001c662000168565b5b50919050565b6128a780620001dd6000396000f3fe608060405234801561001057600080fd5b50600436106100ea5760003560e01c806366858ec81161008c578063a22cb46511610066578063a22cb4651461026f578063b88d4fde1461028b578063c87b56dd146102a7578063e985e9c5146102d7576100ea565b806366858ec8146101f157806370a082311461022157806395d89b4114610251576100ea565b8063095ea7b3116100c8578063095ea7b31461016d57806323b872dd1461018957806342842e0e146101a55780636352211e146101c1576100ea565b806301ffc9a7146100ef57806306fdde031461011f578063081812fc1461013d575b600080fd5b61010960048036038101906101049190611877565b610307565b60405161011691906118bf565b60405180910390f35b6101276103e9565b6040516101349190611973565b60405180910390f35b610157600480360381019061015291906119cb565b61047b565b6040516101649190611a39565b60405180910390f35b61018760048036038101906101829190611a80565b6104c1565b005b6101a3600480360381019061019e9190611ac0565b6105d9565b005b6101bf60048036038101906101ba9190611ac0565b610639565b005b6101db60048036038101906101d691906119cb565b610659565b6040516101e89190611a39565b60405180910390f35b61020b60048036038101906102069190611c48565b61070b565b6040516102189190611cb3565b60405180910390f35b61023b60048036038101906102369190611cce565b610742565b6040516102489190611cb3565b60405180910390f35b6102596107fa565b6040516102669190611973565b60405180910390f35b61028960048036038101906102849190611d27565b61088c565b005b6102a560048036038101906102a09190611e08565b6108a2565b005b6102c160048036038101906102bc91906119cb565b610904565b6040516102ce9190611973565b60405180910390f35b6102f160048036038101906102ec9190611e8b565b610a17565b6040516102fe91906118bf565b60405180910390f35b60007f80ac58cd000000000000000000000000000000000000000000000000000000007bffffffffffffffffffffffffffffffffffffffffffffffffffffffff1916827bffffffffffffffffffffffffffffffffffffffffffffffffffffffff191614806103d257507f5b5e139f000000000000000000000000000000000000000000000000000000007bffffffffffffffffffffffffffffffffffffffffffffffffffffffff1916827bffffffffffffffffffffffffffffffffffffffffffffffffffffffff1916145b806103e257506103e182610aab565b5b9050919050565b6060600080546103f890611efa565b80601f016020809104026020016040519081016040528092919081815260200182805461042490611efa565b80156104715780601f1061044657610100808354040283529160200191610471565b820191906000526020600020905b81548152906001019060200180831161045457829003601f168201915b5050505050905090565b600061048682610b15565b6004600083815260200190815260200160002060009054906101000a900473ffffffffffffffffffffffffffffffffffffffff169050919050565b60006104cc82610659565b90508073ffffffffffffffffffffffffffffffffffffffff168373ffffffffffffffffffffffffffffffffffffffff16141561053d576040517f08c379a000000000000000000000000000000000000000000000000000000000815260040161053490611f9e565b60405180910390fd5b8073ffffffffffffffffffffffffffffffffffffffff1661055c610b60565b73ffffffffffffffffffffffffffffffffffffffff16148061058b575061058a81610585610b60565b610a17565b5b6105ca576040517f08c379a00000000000000000000000000000000000000000000000000000000081526004016105c190612030565b60405180910390fd5b6105d48383610b68565b505050565b6105ea6105e4610b60565b82610c21565b610629576040517f08c379a0000000000000000000000000000000000000000000000000000000008152600401610620906120c2565b60405180910390fd5b610634838383610cb6565b505050565b610654838383604051806020016040528060008152506108a2565b505050565b6000806002600084815260200190815260200160002060009054906101000a900473ffffffffffffffffffffffffffffffffffffffff169050600073ffffffffffffffffffffffffffffffffffffffff168173ffffffffffffffffffffffffffffffffffffffff161415610702576040517f08c379a00000000000000000000000000000000000000000000000000000000081526004016106f99061212e565b60405180910390fd5b80915050919050565b6000806107186007610f1d565b90506107248482610f2b565b61072e8184611105565b6107386007611179565b8091505092915050565b60008073ffffffffffffffffffffffffffffffffffffffff168273ffffffffffffffffffffffffffffffffffffffff1614156107b3576040517f08c379a00000000000000000000000000000000000000000000000000000000081526004016107aa906121c0565b60405180910390fd5b600360008373ffffffffffffffffffffffffffffffffffffffff1673ffffffffffffffffffffffffffffffffffffffff168152602001908152602001600020549050919050565b60606001805461080990611efa565b80601f016020809104026020016040519081016040528092919081815260200182805461083590611efa565b80156108825780601f1061085757610100808354040283529160200191610882565b820191906000526020600020905b81548152906001019060200180831161086557829003601f168201915b5050505050905090565b61089e610897610b60565b838361118f565b5050565b6108b36108ad610b60565b83610c21565b6108f2576040517f08c379a00000000000000000000000000000000000000000000000000000000081526004016108e9906120c2565b60405180910390fd5b6108fe848484846112fc565b50505050565b606061090f82610b15565b600060066000848152602001908152602001600020805461092f90611efa565b80601f016020809104026020016040519081016040528092919081815260200182805461095b90611efa565b80156109a85780601f1061097d576101008083540402835291602001916109a8565b820191906000526020600020905b81548152906001019060200180831161098b57829003601f168201915b5050505050905060006109b9611358565b90506000815114156109cf578192505050610a12565b600082511115610a045780826040516020016109ec92919061221c565b60405160208183030381529060405292505050610a12565b610a0d8461136f565b925050505b919050565b6000600560008473ffffffffffffffffffffffffffffffffffffffff1673ffffffffffffffffffffffffffffffffffffffff16815260200190815260200160002060008373ffffffffffffffffffffffffffffffffffffffff1673ffffffffffffffffffffffffffffffffffffffff16815260200190815260200160002060009054906101000a900460ff16905092915050565b60007f01ffc9a7000000000000000000000000000000000000000000000000000000007bffffffffffffffffffffffffffffffffffffffffffffffffffffffff1916827bffffffffffffffffffffffffffffffffffffffffffffffffffffffff1916149050919050565b610b1e816113d7565b610b5d576040517f08c379a0000000000000000000000000000000000000000000000000000000008152600401610b549061212e565b60405180910390fd5b50565b600033905090565b816004600083815260200190815260200160002060006101000a81548173ffffffffffffffffffffffffffffffffffffffff021916908373ffffffffffffffffffffffffffffffffffffffff160217905550808273ffffffffffffffffffffffffffffffffffffffff16610bdb83610659565b73ffffffffffffffffffffffffffffffffffffffff167f8c5be1e5ebec7d5bd14f71427d1e84f3dd0314c0f7b2291e5b200ac8c7c3b92560405160405180910390a45050565b600080610c2d83610659565b90508073ffffffffffffffffffffffffffffffffffffffff168473ffffffffffffffffffffffffffffffffffffffff161480610c6f5750610c6e8185610a17565b5b80610cad57508373ffffffffffffffffffffffffffffffffffffffff16610c958461047b565b73ffffffffffffffffffffffffffffffffffffffff16145b91505092915050565b8273ffffffffffffffffffffffffffffffffffffffff16610cd682610659565b73ffffffffffffffffffffffffffffffffffffffff1614610d2c576040517f08c379a0000000000000000000000000000000000000000000000000000000008152600401610d23906122b2565b60405180910390fd5b600073ffffffffffffffffffffffffffffffffffffffff168273ffffffffffffffffffffffffffffffffffffffff161415610d9c576040517f08c379a0000000000000000000000000000000000000000000000000000000008152600401610d9390612344565b60405180910390fd5b610da7838383611443565b610db2600082610b68565b6001600360008573ffffffffffffffffffffffffffffffffffffffff1673ffffffffffffffffffffffffffffffffffffffff1681526020019081526020016000206000828254610e029190612393565b925050819055506001600360008473ffffffffffffffffffffffffffffffffffffffff1673ffffffffffffffffffffffffffffffffffffffff1681526020019081526020016000206000828254610e5991906123c7565b92505081905550816002600083815260200190815260200160002060006101000a81548173ffffffffffffffffffffffffffffffffffffffff021916908373ffffffffffffffffffffffffffffffffffffffff160217905550808273ffffffffffffffffffffffffffffffffffffffff168473ffffffffffffffffffffffffffffffffffffffff167fddf252ad1be2c89b69c2b068fc378daa952ba7f163c4a11628f55a4df523b3ef60405160405180910390a4610f18838383611448565b505050565b600081600001549050919050565b600073ffffffffffffffffffffffffffffffffffffffff168273ffffffffffffffffffffffffffffffffffffffff161415610f9b576040517f08c379a0000000000000000000000000000000000000000000000000000000008152600401610f9290612469565b60405180910390fd5b610fa4816113d7565b15610fe4576040517f08c379a0000000000000000000000000000000000000000000000000000000008152600401610fdb906124d5565b60405180910390fd5b610ff060008383611443565b6001600360008473ffffffffffffffffffffffffffffffffffffffff1673ffffffffffffffffffffffffffffffffffffffff168152602001908152602001600020600082825461104091906123c7565b92505081905550816002600083815260200190815260200160002060006101000a81548173ffffffffffffffffffffffffffffffffffffffff021916908373ffffffffffffffffffffffffffffffffffffffff160217905550808273ffffffffffffffffffffffffffffffffffffffff16600073ffffffffffffffffffffffffffffffffffffffff167fddf252ad1be2c89b69c2b068fc378daa952ba7f163c4a11628f55a4df523b3ef60405160405180910390a461110160008383611448565b5050565b61110e826113d7565b61114d576040517f08c379a000000000000000000000000000000000000000000000000000000000815260040161114490612567565b60405180910390fd5b80600660008481526020019081526020016000209080519060200190611174929190611768565b505050565b6001816000016000828254019250508190555050565b8173ffffffffffffffffffffffffffffffffffffffff168373ffffffffffffffffffffffffffffffffffffffff1614156111fe576040517f08c379a00000000000000000000000000000000000000000000000000000000081526004016111f5906125d3565b60405180910390fd5b80600560008573ffffffffffffffffffffffffffffffffffffffff1673ffffffffffffffffffffffffffffffffffffffff16815260200190815260200160002060008473ffffffffffffffffffffffffffffffffffffffff1673ffffffffffffffffffffffffffffffffffffffff16815260200190815260200160002060006101000a81548160ff0219169083151502179055508173ffffffffffffffffffffffffffffffffffffffff168373ffffffffffffffffffffffffffffffffffffffff167f17307eab39ab6107e8899845ad3d59bd9653f200f220920489ca2b5937696c31836040516112ef91906118bf565b60405180910390a3505050565b611307848484610cb6565b6113138484848461144d565b611352576040517f08c379a000000000000000000000000000000000000000000000000000000000815260040161134990612665565b60405180910390fd5b50505050565b606060405180602001604052806000815250905090565b606061137a82610b15565b6000611384611358565b905060008151116113a457604051806020016040528060008152506113cf565b806113ae846115e4565b6040516020016113bf92919061221c565b6040516020818303038152906040525b915050919050565b60008073ffffffffffffffffffffffffffffffffffffffff166002600084815260200190815260200160002060009054906101000a900473ffffffffffffffffffffffffffffffffffffffff1673ffffffffffffffffffffffffffffffffffffffff1614159050919050565b505050565b505050565b600061146e8473ffffffffffffffffffffffffffffffffffffffff16611745565b156115d7578373ffffffffffffffffffffffffffffffffffffffff1663150b7a02611497610b60565b8786866040518563ffffffff1660e01b81526004016114b994939291906126da565b602060405180830381600087803b1580156114d357600080fd5b505af192505050801561150457506040513d601f19601f82011682018060405250810190611501919061273b565b60015b611587573d8060008114611534576040519150601f19603f3d011682016040523d82523d6000602084013e611539565b606091505b5060008151141561157f576040517f08c379a000000000000000000000000000000000000000000000000000000000815260040161157690612665565b60405180910390fd5b805181602001fd5b63150b7a0260e01b7bffffffffffffffffffffffffffffffffffffffffffffffffffffffff1916817bffffffffffffffffffffffffffffffffffffffffffffffffffffffff1916149150506115dc565b600190505b949350505050565b6060600082141561162c576040518060400160405280600181526020017f30000000000000000000000000000000000000000000000000000000000000008152509050611740565b600082905060005b6000821461165e57808061164790612768565b915050600a8261165791906127e0565b9150611634565b60008167ffffffffffffffff81111561167a57611679611b1d565b5b6040519080825280601f01601f1916602001820160405280156116ac5781602001600182028036833780820191505090505b5090505b60008514611739576001826116c59190612393565b9150600a856116d49190612811565b60306116e091906123c7565b60f81b8183815181106116f6576116f5612842565b5b60200101907effffffffffffffffffffffffffffffffffffffffffffffffffffffffffffff1916908160001a905350600a8561173291906127e0565b94506116b0565b8093505050505b919050565b6000808273ffffffffffffffffffffffffffffffffffffffff163b119050919050565b82805461177490611efa565b90600052602060002090601f01602090048101928261179657600085556117dd565b82601f106117af57805160ff19168380011785556117dd565b828001600101855582156117dd579182015b828111156117dc5782518255916020019190600101906117c1565b5b5090506117ea91906117ee565b5090565b5b808211156118075760008160009055506001016117ef565b5090565b6000604051905090565b600080fd5b600080fd5b60007fffffffff0000000000000000000000000000000000000000000000000000000082169050919050565b6118548161181f565b811461185f57600080fd5b50565b6000813590506118718161184b565b92915050565b60006020828403121561188d5761188c611815565b5b600061189b84828501611862565b91505092915050565b60008115159050919050565b6118b9816118a4565b82525050565b60006020820190506118d460008301846118b0565b92915050565b600081519050919050565b600082825260208201905092915050565b60005b838110156119145780820151818401526020810190506118f9565b83811115611923576000848401525b50505050565b6000601f19601f8301169050919050565b6000611945826118da565b61194f81856118e5565b935061195f8185602086016118f6565b61196881611929565b840191505092915050565b6000602082019050818103600083015261198d818461193a565b905092915050565b6000819050919050565b6119a881611995565b81146119b357600080fd5b50565b6000813590506119c58161199f565b92915050565b6000602082840312156119e1576119e0611815565b5b60006119ef848285016119b6565b91505092915050565b600073ffffffffffffffffffffffffffffffffffffffff82169050919050565b6000611a23826119f8565b9050919050565b611a3381611a18565b82525050565b6000602082019050611a4e6000830184611a2a565b92915050565b611a5d81611a18565b8114611a6857600080fd5b50565b600081359050611a7a81611a54565b92915050565b60008060408385031215611a9757611a96611815565b5b6000611aa585828601611a6b565b9250506020611ab6858286016119b6565b9150509250929050565b600080600060608486031215611ad957611ad8611815565b5b6000611ae786828701611a6b565b9350506020611af886828701611a6b565b9250506040611b09868287016119b6565b9150509250925092565b600080fd5b600080fd5b7f4e487b7100000000000000000000000000000000000000000000000000000000600052604160045260246000fd5b611b5582611929565b810181811067ffffffffffffffff82111715611b7457611b73611b1d565b5b80604052505050565b6000611b8761180b565b9050611b938282611b4c565b919050565b600067ffffffffffffffff821115611bb357611bb2611b1d565b5b611bbc82611929565b9050602081019050919050565b82818337600083830152505050565b6000611beb611be684611b98565b611b7d565b905082815260208101848484011115611c0757611c06611b18565b5b611c12848285611bc9565b509392505050565b600082601f830112611c2f57611c2e611b13565b5b8135611c3f848260208601611bd8565b91505092915050565b60008060408385031215611c5f57611c5e611815565b5b6000611c6d85828601611a6b565b925050602083013567ffffffffffffffff811115611c8e57611c8d61181a565b5b611c9a85828601611c1a565b9150509250929050565b611cad81611995565b82525050565b6000602082019050611cc86000830184611ca4565b92915050565b600060208284031215611ce457611ce3611815565b5b6000611cf284828501611a6b565b91505092915050565b611d04816118a4565b8114611d0f57600080fd5b50565b600081359050611d2181611cfb565b92915050565b60008060408385031215611d3e57611d3d611815565b5b6000611d4c85828601611a6b565b9250506020611d5d85828601611d12565b9150509250929050565b600067ffffffffffffffff821115611d8257611d81611b1d565b5b611d8b82611929565b9050602081019050919050565b6000611dab611da684611d67565b611b7d565b905082815260208101848484011115611dc757611dc6611b18565b5b611dd2848285611bc9565b509392505050565b600082601f830112611def57611dee611b13565b5b8135611dff848260208601611d98565b91505092915050565b60008060008060808587031215611e2257611e21611815565b5b6000611e3087828801611a6b565b9450506020611e4187828801611a6b565b9350506040611e52878288016119b6565b925050606085013567ffffffffffffffff811115611e7357611e7261181a565b5b611e7f87828801611dda565b91505092959194509250565b60008060408385031215611ea257611ea1611815565b5b6000611eb085828601611a6b565b9250506020611ec185828601611a6b565b9150509250929050565b7f4e487b7100000000000000000000000000000000000000000000000000000000600052602260045260246000fd5b60006002820490506001821680611f1257607f821691505b60208210811415611f2657611f25611ecb565b5b50919050565b7f4552433732313a20617070726f76616c20746f2063757272656e74206f776e6560008201527f7200000000000000000000000000000000000000000000000000000000000000602082015250565b6000611f886021836118e5565b9150611f9382611f2c565b604082019050919050565b60006020820190508181036000830152611fb781611f7b565b9050919050565b7f4552433732313a20617070726f76652063616c6c6572206973206e6f7420746f60008201527f6b656e206f776e6572206e6f7220617070726f76656420666f7220616c6c0000602082015250565b600061201a603e836118e5565b915061202582611fbe565b604082019050919050565b600060208201905081810360008301526120498161200d565b9050919050565b7f4552433732313a2063616c6c6572206973206e6f7420746f6b656e206f776e6560008201527f72206e6f7220617070726f766564000000000000000000000000000000000000602082015250565b60006120ac602e836118e5565b91506120b782612050565b604082019050919050565b600060208201905081810360008301526120db8161209f565b9050919050565b7f4552433732313a20696e76616c696420746f6b656e2049440000000000000000600082015250565b60006121186018836118e5565b9150612123826120e2565b602082019050919050565b600060208201905081810360008301526121478161210b565b9050919050565b7f4552433732313a2061646472657373207a65726f206973206e6f74206120766160008201527f6c6964206f776e65720000000000000000000000000000000000000000000000602082015250565b60006121aa6029836118e5565b91506121b58261214e565b604082019050919050565b600060208201905081810360008301526121d98161219d565b9050919050565b600081905092915050565b60006121f6826118da565b61220081856121e0565b93506122108185602086016118f6565b80840191505092915050565b600061222882856121eb565b915061223482846121eb565b91508190509392505050565b7f4552433732313a207472616e736665722066726f6d20696e636f72726563742060008201527f6f776e6572000000000000000000000000000000000000000000000000000000602082015250565b600061229c6025836118e5565b91506122a782612240565b604082019050919050565b600060208201905081810360008301526122cb8161228f565b9050919050565b7f4552433732313a207472616e7366657220746f20746865207a65726f2061646460008201527f7265737300000000000000000000000000000000000000000000000000000000602082015250565b600061232e6024836118e5565b9150612339826122d2565b604082019050919050565b6000602082019050818103600083015261235d81612321565b9050919050565b7f4e487b7100000000000000000000000000000000000000000000000000000000600052601160045260246000fd5b600061239e82611995565b91506123a983611995565b9250828210156123bc576123bb612364565b5b828203905092915050565b60006123d282611995565b91506123dd83611995565b9250827fffffffffffffffffffffffffffffffffffffffffffffffffffffffffffffffff0382111561241257612411612364565b5b828201905092915050565b7f4552433732313a206d696e7420746f20746865207a65726f2061646472657373600082015250565b60006124536020836118e5565b915061245e8261241d565b602082019050919050565b6000602082019050818103600083015261248281612446565b9050919050565b7f4552433732313a20746f6b656e20616c7265616479206d696e74656400000000600082015250565b60006124bf601c836118e5565b91506124ca82612489565b602082019050919050565b600060208201905081810360008301526124ee816124b2565b9050919050565b7f45524337323155524953746f726167653a2055524920736574206f66206e6f6e60008201527f6578697374656e7420746f6b656e000000000000000000000000000000000000602082015250565b6000612551602e836118e5565b915061255c826124f5565b604082019050919050565b6000602082019050818103600083015261258081612544565b9050919050565b7f4552433732313a20617070726f766520746f2063616c6c657200000000000000600082015250565b60006125bd6019836118e5565b91506125c882612587565b602082019050919050565b600060208201905081810360008301526125ec816125b0565b9050919050565b7f4552433732313a207472616e7366657220746f206e6f6e20455243373231526560008201527f63656976657220696d706c656d656e7465720000000000000000000000000000602082015250565b600061264f6032836118e5565b915061265a826125f3565b604082019050919050565b6000602082019050818103600083015261267e81612642565b9050919050565b600081519050919050565b600082825260208201905092915050565b60006126ac82612685565b6126b68185612690565b93506126c68185602086016118f6565b6126cf81611929565b840191505092915050565b60006080820190506126ef6000830187611a2a565b6126fc6020830186611a2a565b6127096040830185611ca4565b818103606083015261271b81846126a1565b905095945050505050565b6000815190506127358161184b565b92915050565b60006020828403121561275157612750611815565b5b600061275f84828501612726565b91505092915050565b600061277382611995565b91507fffffffffffffffffffffffffffffffffffffffffffffffffffffffffffffffff8214156127a6576127a5612364565b5b600182019050919050565b7f4e487b7100000000000000000000000000000000000000000000000000000000600052601260045260246000fd5b60006127eb82611995565b91506127f683611995565b925082612806576128056127b1565b5b828204905092915050565b600061281c82611995565b915061282783611995565b925082612837576128366127b1565b5b828206905092915050565b7f4e487b7100000000000000000000000000000000000000000000000000000000600052603260045260246000fdfea264697066735822122069e910d367b2420f2813e456f35a393d3a8e4379d51d91cd1ce3b29f93495ccd64736f6c63430008090033",
  "linkReferences": {},
  "deployedLinkReferences": {}
}